:10700000CDB7DEB7CB58D109DEBFCDBF14BEA89532
:1070100088E1809360001092600082E39CE334D2A8
:1070200068EB7BE0CE018A579F4F47D2812C612CC1
:10703000712C912CA12CB12CC12CD12C65E8562E91
:1070400075E4F72EC657DF4F5882CA58D0409E01CC
:1070500026573F4FAE014F5F5F4FBE0165577F4FD1
:10706000CE018A579F4F2FD28B3F2FEF920709F403
:10707000BFC197FDE7CFC657DF4FE880CA58D04061
:10708000EE2009F42BC1C857DF4F8881C858D04083
:10709000803109F023C18E010F5F1F4FC557DF4FAD
:1070A0002881CB58D040AE014A575F4F63E083E45C
:1070B000ACD1892B09F430C0009106011091070171
:1070C000812E1C831D839A80C8018925082E8295F4
:1070D000807F8025092E982F82958F7008268695AF
:1070E00098278927880F880F880F8025909307019C
:1070F000809306017B80C557DF4F6881CB58D04015
:107100008FE4898325E0AE014F5F5F4FCE018A5740
:107110009F4FC2D2612E96CFC657DF4FE880CA5824
:10712000D0408E010F5F1F4FC557DF4F2881CB58CE
:10713000D040AE014A575F4F65E084E466D1892BA9
:1071400051F11A81191109C00B81071106C09C80E9
:10715000961003C07D80781451F08FEF9DE329E4F1
:10716000815090402040E1F700C0000041C1C55768
:10717000DF4F6881CB58D0408FE4898321E0AE0196
:107180004F5F5F4FCE018A579F4F86D2872C692C65
:10719000702E912E57CFC657DF4FE880CA58D04087
:1071A0008E010F5F1F4FC557DF4F2881CB58D0404E
:1071B000AE014A575F4F61E083E527D1892B49F043
:1071C00083E08A838EE18B8385E98C838FE08D83D6
:1071D00058C0C657DF4FE880CA58D0408E010F5FB5
:1071E0001F4FC557DF4F2881CB58D040AE014A57BB
:1071F0005F4F66E081E409D1892BF1F08A818554E3
:10720000C557DF4F6881CB58D040823090F4CD8095
:10721000D12CDC2CCC248E81C82A8FE4898321E0F8
:10722000A801CE018A579F4F37D250E8A52EB12C26
:1072300009CFF98282E059C08981873509F068C099
:107240005EC0C657DF4FE880CA58D0408E010F5F3E
:107250001F4FC557DF4F2881CB58D040AE014A574A
:107260005F4F61E08EE4D1D0892BA1F081E08A8369
:107270005B82AE014B5F5F4FBE016C5F7F4F80E072
:10728000B3D2C557DF4F6881CB58D0408FE4898394
:1072900025E022C0C657DF4FE880CA58D0408E0193
:1072A0000F5F1F4FC557DF4F2881CB58D040AE012D
:1072B0004A575F4F63E086E4A8D0892B09F490C059
:1072C0004B816A8180E081D2C557DF4F6881CB58FE
:1072D000D0408FE4898321E0A8010CC0C557DF4F5F
:1072E0006881CB58D040F98284E08A8322E0AE01E5
:1072F0004F5F5F4FCE018A579F4FCED1A3CE2A81D9
:10730000822F90E0A816B906F0F0243820F11BC0B7
:10731000C657DF4FE880CA58D0408E010F5F1F4F1D
:10732000C557DF4F2881CB58D040AE014A575F4F39
:1073300062E082E56AD0892B79F12A81822F90E080
:10734000A816B906E8F4C557DF4F6881CB58D0407E
:10735000F98281E0CACFAC01440F551FC40ED51E7F
:10736000A81AB90A11F41A8202C081E08A83C557AB
:10737000DF4F6881CB58D0408FE489832E5FB7CF31
:10738000243808F7DE011396F601322F315018F336
:1073900044914D933296FACFC657DF4FE880CA58D2
:1073A000D0408E010F5F1F4FC557DF4F2881CB584C
:1073B000D040AE014A575F4F61E082E426D0892B6E
:1073C00009F43FCFC557DF4F6881CB58D0408FE4D9
:1073D000898321E0A801CE018A579F4F5DD108C063
:1073E000C557DF4F6881CB58D040F9821A827ECFD3
:1073F000E9D10C94000080E090E0C557DF4F0FB654
:10740000F894DEBF0FBECDBF0895EF920F931F9388
:10741000F801908198130DC0662371F0E61661F0B3
:10742000622FCA0125E4208321E0218322E0A80104
:1074300033D180E090E002C081E090E01F910F9195
:10744000EF9008958627082E8295807F8025092E4B
:10745000982F82958F700826869598278927880F00
:10746000880F880F80250895A9990CC02091C0002D
:1074700027FFFACF16BCA99A2091C600FC012083F1
:1074800081E0089580E008951092C50023E02093E4
:10749000C400E0ECF0E020812D7F208328E92093D8
:1074A000C10026E02093C20022E025BD20E627BDD2
:1074B00090930901809308010895FC017183608312
:1074C0001282138208954F925F926F927F928F92F1
:1074D0009F92AF92BF92CF92DF92EF92FF920F9363
:1074E0001F93CF93DF9300D000D01F92CDB7DEB7AC
:1074F0006C015B01742E652E49010FEF1FEF87D1E0
:10750000F601E080F180E114F10441F416BCA99A7F
:10751000CE010596A9DF8823C9F313C09AE0592E3E
:1075200016BCA99ACE0105969FDF81110AC05A9414
:107530005110F6CFF1E0EF1AF10881F78BEF9FEFD2
:1075400095C08D818535D9F6CE0101968DDF8823D2
:10755000B1F26981C80176DF8C018981F6018283ED
:10756000CE01059681DF882351F26D81C8016ADF63
:107570008C018D8190910301982320910001921735
:1075800071F090910401982320910101921739F034
:10759000909105019823209102019213B0CFA1147C
:1075A000B10411F0F5018083CE0104965DDF8823DC
:1075B00009F4A5CF6C81F4018081861708F451C0CD
:1075C000C80140DF8C018C81F4018083572CE72CAB
:1075D000F62C7E2C6F2C9C818E2D8519891778F4C2
:1075E000CE01059641DF882309F489CF6D81C8015A
:1075F00029DF8C018D81F70181937F01EACFCE01D4
:10760000039632DF882309F47ACFCE0102962CDF6D
:10761000882309F474CF412E5524642D80910601EE
:10762000909107010FDF90930701809306018B81F2
:1076300090E08415950509F062CF8A8190E0980169
:1076400033278217930709F05ACFF60182818031E0
:1076500059F4E0910801F09109016C81C701099585
:1076600003C08EEF9FEF02C080E090E00F900F907C
:107670000F900F900F90DF91CF911F910F91FF907E
:10768000EF90DF90CF90BF90AF909F908F907F90C2
:107690006F905F904F9008955F926F927F928F925C
:1076A0009F92AF92BF92CF92DF92EF92FF920F9391
:1076B0001F93CF93DF93213408F072C0122F652EF1
:1076C000842E962E6C0181E1782E00E0DFEFCFEF63
:1076D000542E7A94772009F460C099D085E5AAD019
:1076E000882309F443C0F6018381A4D0882309F4D8
:1076F0003DC0F60163818D2F9C2FA4DED82FC92FAA
:10770000892D98D0882391F1692D8D2F9C2F9ADE99
:10771000D82FC92F812F8ED0882341F1612F8D2F33
:107720009C2F90DED82FC92FE82CF62C8E2D851992
:10773000811788F45701F70180817CD08823B1F04C
:10774000FFEFEF1AFF0AF50160818D2F9C2F7ADE83
:10775000D82FC92FEBCF8C2F6DD0882339F08D2FE8
:1077600069D0882319F0812F90E01CC06C2F809184
:1077700006019091070166DE809306019093070150
:10778000000F0160902F9823992309F4A2CFF5ED03
:10779000FA95F1F700009150F7CF8FEF9FEF02C0FD
:1077A0008EEF9FEFDF91CF911F910F91FF90EF90A0
:1077B000DF90CF90BF90AF909F908F907F906F9011
:1077C0005F90089515BC17BC0895833060F42FB7FF
:1077D000F89490E0FC01ED5FFE4F6083FC01E05007
:1077E000FF4F40832FBF0895823080F42FB7F89465
:1077F00090E0FC01ED5FFE4F3081FB013083FC0126
:10780000E050FF4F8081FA0180832FBF089580915F
:10781000C00087FF03C08091C600F9CF8AE095E1E0
:107820009A95F1F700009091C00097FDF0CF81503C
:10783000B1F70895982F8091C00085FFFCCF9093F9
:10784000C60020E830E08091C00087FF06C020918C
:10785000C60081E0921304C004C02150310999F799
:0678600080E00895089588
:0878660001FFFFFFFFFFFFFF20
:040000030000700089
:00000001FF
